:101DC40053544130313320696E69742073756363F1
:101DD4006573730A0053544130313320696E69745A
:101DE400206661696C65640A0053544130313320C4
:101DF400496E697400535441303133205375636321
:041E0400657373008F
:101CFC007F10121F8B758E0C758F017F2C7E01123D
:101D0C001ECC7F807E25121D63121E437BFF7A1D25
:101D1C0079EDE4FDFF121BFD121C82EF701C7BFFA2
:101D2C007A1D79C41210357BFF7A1D79F9E4FDFF19
:101D3C00121BFD7F80121F8B800E7BFF7A1D79D9C1
:101D4C001210357F40121F8B7F10121F94121F7EB2
:071D5C008F22121F7680F6B2
:101F3B0053890F438910C2AB758DFF758BC3C28F4D
:031F4B00D28E2211
:0A1EF200E4FF121EFCC291D290E43E
:101EFC00308E03308FFDC28EEF700A758DFF758B9F
:061F0C00C3C28FD28E2239
:101F2700121EF2D2913091FDA290E43360037F0339
:031F3700227F0105
:011F3A002284
:101F4E00E4FF121EFCC291C290E4121EFCD291302C
:031F5E0091FD22D0
:091F6D00121EF2D2913091FD2206
:101F1200E4FF121EFCC291C290E4121EFCD2913068
:051F220091FDD29022A8
:021E0800AE0723
:101E0A007D08E4FF121EFCC2911DEEA8050880029F
:101E1A00C313D8FC5401FB24FF9290E4FF121EFC6A
:101E2A00D2913091FDA290E4336B60037F0222EDE0
:081E3A00D3940050CD121F27C4
:011E4200227D
:021A2600AE0709
:101A2800D290D291E5402542F542E43541F5413066
:101A380091032090037F0222121F3BEE25E0F54719
:101A48005347FEC290AF47121E088F46E546640111
:101A580060087F01121EFCAF4622E4F548F549C331
:101A6800E5499542E5489541505DE540FB7A00C35C
:101A7800E5499BE5489A5019E54975F008A4F9AF7E
:101A88003FAE3EAD3DAC3CF8121735EFE48F4780D2
:101A980017C3E5499BFFE5489AAB43AA44A9458F7C
:101AA80082F5831215A6F547AF47121E088F46E543
:101AB80046640160087F01121EFCAF46220549E515
:0F1AC80049709C05488098121F127F01121EFC66
:011AD70022EC
:0218AC008F2E7D
:1018AE0075390185323F85313E85303D852F3C852A
:1018BE003340E4F541F54285364385374485384556
:1018CE00121A26D290D2913091032090037F0222D9
:1018DE00121F3BE52E25E0FF430701C290121E08A2
:1018EE008F39E539640160087F01121EFCAF392281
:1018FE00E4FDFCC3ED9535EC953450567E08E4F5C9
:10190E003AEED39400401B1E121EF2D2913091FD7E
:10191E00A290E433FFA806088002C333D8FC423AF3
:10192E0080DFAB36AA37A9388D828C83E53A121543
:10193E00E5E53524FFFFE53434FFFEEFB50509EE8E
:10194E00B50405121F6D8003121F4E0DBD00010C54
:0A195E0080A1121F127F01121EFC6F
:01196800225C
:101E7B008D29EF70077F40121F8680057F40121F50
:101E8B00907F80121F90AF29121F987F80121F86A0
:0A1E9B007FFF121F987F40021F9086
:031F98008F802215
:051F8600EFF452B0224F
:041F9000EF42B0224A
:101E43007D38E4FF121E7B7F017E00121ECC7D488D
:101E5300E4FF121E7B7F017E00121ECC7D01E4FF96
:101E6300121E7B7F027E00121ECC7D0CE4FF121E2D
:081E73007B7F017E00021ECC02
:081BFD008D238B248A25892623
:101C0500EFF46010EF4480FDE4FF121E7B7F017E40
:101C150000121ECCE5237038F527AB24AA25A9268A
:101C2500852782F5831215A6F528E528604EFD7FE8
:101C350001121E7B7F017E00121ECC0527AB24AA54
:101C450025A9268527827583001215A6F52880DA31
:101C5500E4F527E527C395235022AB24AA25A92619
:101C65008527827583001215A6F528FD7F01121EB2
:0C1C75007B7F017E00121ECC052780D76B
:011C81002240
:051F8B00EFF452A0225A
:041F9400EF42A02256
:101AD800EB6049EF14601B14602614603124036026
:101AE80003021B6F7401A805088002C333D8FC42A7
:101AF80080227401A805088002C333D8FC429022D2
:101B08007401A805088002C333D8FC42A0227401DE
:101B1800A805088002C333D8FC42B022EF1460192C
:101B28001460251460312403703D7401A8050880F1
:101B380002C333D8FCF45280227401A8050880023D
:101B4800C333D8FCF45290227401A805088002C35C
:101B580033D8FCF452A022AF057401A8070880020C
:081B6800C333D8FCF452B02293
:10132F004572726F723A2074696D656F75742077AC
:10133F0068696C652074657374696E672072656186
:10134F00640A004572726F723A20493243207768FF
:10135F00696C652074657374696E6720726561646A
:10136F003A2025640A004572726F723A20696E63E3
:10137F006F72726563742049442072656769737474
:10138F006572207768696C652074657374696E6720
:10139F002072656164002049442072656769737427
:1013AF0065723A203C307825322E3262583E0A0060
:1013BF0053544130313320636F6E6669672074690F
:1013CF006D656F7574206572726F720A00535441A8
:1013DF0030313320696E6974206572726F722077B5
:1013EF0068696C652073657474696E6720636F6ECE
:1013FF00666967207461626C653A2074696D656F08
:10140F0075740A0053544130313320696E6974206A
:10141F006572726F72207768696C6520736574747A
:10142F00696E6720636F6E666967207461626C65B1
:10143F003A20636F6D6D756E69636174696F6E0AC3
:10144F000053544130313320696E697420657272D4
:10145F006F72207768696C65207665726966796945
:10146F006E6720636F6E666967207461626C653AA0
:10147F002074696D656F75740A00535441303133B0
:10148F0020696E6974206572726F72207768696C5B
:10149F00652073657474696E6720636F6E66696724
:1014AF00207461626C653A20726567697374657246
:1014BF002076616C75657320646F206E6F74206D7C
:1014CF00617463680A0053686F756C642062653AD3
:1014DF00203C307825322E3262583E2020696E73C0
:1014EF007465616420676F743A203C307825322E22
:1014FF003262583E0A0053657420726567697374CF
:10150F0065723A203C307825322E3262583E207474
:10151F006F203C307825322E3262583E202076657F
:10152F007269666965642061733A203C30782532B0
:10153F002E3262583E0A0053544130313320696EC7
:10154F006974206572726F720A005265616420744B
:10155F00657374207061737365643A204944207217
:10156F00656769737465723A203C307825322E3284
:10157F0062583E0A005455060B615065526451057E
:10158F000D180C46487207100902050600B8000036
:07159F00A10004050707018C
:061B70008B248A25892662
:101B7600752832E4753201F531F530F52F753301EC
:101B8600F534753501F5367537007538297F4312FA
:101B960018AC8F271528E52764016004E52870D363
:101BA600E528700C7BFF7A13792F1210357F0022FF
:101BB600E5276401600F7BFF7A137952852731127E
:101BC60010357F0022AB24AA25A926E5291215D3B4
:101BD600E52964AC601E7BFF7A1379751210358592
:101BE60024318525328526337BFF7A1379A5121099
:061BF600357F00227F0193
:011BFC0022C6
:061969008B248A2589266B
:10196F00E4F528F5298529828528831215A6FFE439
:10197F008F2DF52CF52BF52A0529E5297002052861
:10198F00F5828528831215A6F52E0529E529700203
:10199F000528E47FFFFEFDFCAB2DAA2CA92BA82A5E
:1019AF00C3121724606E752732852D3F852C3E8517
:1019BF002B3D852A3C7540017541007542017543E9
:1019CF000075440075452E7F43121A261527EF64C4
:1019DF00016004E52770D2E52770037F0322AB2453
:1019EF00AA25A9268529828528831215A6FFE48FAB
:1019FF002DF52CF52BF52A0529E52970020528F57B
:101A0F00828528831215A6F52E0529E529708305F1
:061A1F00280219A17F025C
:011A2500229E
:10179700E4F528F529752632AB29EB90158493FFDC
:1017A700E48F2DF52CF52BF52AEB90159593F52560
:1017B700852D3F852C3E852B3D852A3C754001753F
:1017C70041007542017543007544007545257F4307
:1017D700121A268F271526E52764016004E526706F
:1017E700CFE526700C7BFF7A1379DC1210357F0169
:1017F70022E5276401600C7BFF7A147913121035F8
:101807007F0122E4F526F524852D32852C31852BA1
:1018170030852A2F7533017534007535017536000B
:101827007537007538247F431218AC8F271526E5C6
:101837002764016004E52670CFE526700C7BFF7AEC
:101847001479501210357F0122E5276401600C7B63
:10185700FF7A1479131210357F0122E5246525607C
:101867001B7BFF7A1479891210357BFF7A1479D59F
:101877008525318524321210357F01227BFF7A15A9
:101887007905852D318525328524331210350529B3
:10189700E52970020528C39411E528940050030236
:0418A700179C7F0209
:0118AB00221A
:101C8200E4FB7D037F03121AD87B017D037F0312DD
:101C92001AD8E4FB7D047F03121AD87B007A0079FC
:101CA20023121B70EF6401600C7BFF7A15794612D8
:101CB20010357F01227B017D047F03121AD87BFF3E
:101CC2007A1579598523311210357BFF7A00790311
:101CD200121969EF640260037F01227BFF7A0F7998
:101CE200A1121969EF640260037F0122121797EFB4
:091CF200640260037F01227F00FF
:011CFB0022C6
:101ECC005389F0438901C2A9758CF4758A3DC28D82
:101EDC00D28C308DFDC28CEF1F70011ED3EF94009D
:061EEC00EE940050E32219
:101D63008E238F2453873F438780C2AC759852E4F8
:101D7300F59BAE23AF24FCFD7B60FAF9F81216073E
:101D8300E42FFFE43EFEED342FFDEC340DFCC004E4
:101D9300C005C006C007AE23AF24E4FCFD7BC0FA38
:101DA300F9F8121607A804A905AA06AB07D007D0AD
:101DB30006D005D004121692EFF404F59A759B1E13
:011DC30022FD
:081F76003099FD8F99C29922F8
:081F7E003098FDC298AF9922D2
:100003003A012A04280029002000210022002300AD
:10001300240025002600270028012802218F280319
:100023002100280428052806280728082809280A63
:10003300280B280C20802190280D20002100280E59
:1000430020812191280F20002192281021002811BE
:1000530021932812210028132814281520822816FA
:1000630020002817281828192194281A2195281BBD
:100073002196281C2100281D2083281E2000281FCC
:1000830021972820210028212822282328242825D5
:100093002826282728282829282A2084282B2000B6
:1000A300282C282D282E282F283028312832208547
:1000B3002833200028342835283628372198283833
:1000C30021002839283A283B283C283D283E283F50
:1000D30028402841284228432844284528462847C1
:1000E30028482849284A284B284C284D284E284F71
:1000F3002850285128522853285428552856285721
:1001030028582859285A285B285C285D285E285FD0
:1001130028602861286221992863210028642865C2
:100123002866286728682869286A286B286C286D40
:10013300286E286F287028712872287328742875F0
:100143002876287728782879287A287B287C287DA0
:10015300287E287F28802881288228832884288550
:100163002886288728882889288A288B288C288D00
:10017300288E288F289028912086289220872893DC
:100183002000289428952896289728982899289A13
:10019300289B289C289D289E289F219A28A02100DF
:1001A30028A128A228A328A428A528A628A728A8E8
:1001B30028A928AA28AB28AC28AD28AE28AF28B098
:1001C30028B128B228B328B428B528B628B728B848
:1001D30028B9208828BA200028BB208928BC200001
:1001E30028BD28BE28BF28C028C128C228C3219BF8
:1001F30028C4210028C528C628C728C828C928CA52
:1002030028CB28CC28CD28CE28CF28D028D128D237
:1002130028D328D428D528D628D728D828D928DAE7
:1002230028DB28DC28DD28DE28DF28E028E1208AF7
:1002330028E2208B28E3200028E428E528E628E7A5
:1002430028E828E928EA28EB28EC28ED28EE28EF0F
:1002530028F028F128F228F328F428F528F628F7BF
:1002630028F8208C28F92000219C28FA219D28FBBE
:10027300208D219E28FC208E219F28FD2000210017
:1002830028FE28FF2A012800220123952489250717
:1002930026A42707280121C72200238026C4270C70
:1002A30028022009211C220426AA270A2803200049
:1002B3002100220023A626A02707280428052005BD
:1002C300238426B42709280620002203230024813F
:1002D30025C026AB270A280721AE220023952489AF
:1002E300250726A42700280821482201238026C4A5
:1002F300270C280920092104220426AA270A280AF0
:1003030020002100220023A826A42707280B280C5D
:1003130021402220238026C4270C280D222426C610
:10032300280E219E220026C8280F2009210222140C
:1003330026AA270A2810200521002200238426B498
:1003430027092811200021012300240125C026AB01
:10035300270A281221C3239524892507262027004D
:100363002813200321C223832626270D281421B313
:0E03730022082815200021C62200239526000E
:1003810027082816210023002496250326AA270AD8
:100391002817204221B62380248925072818200008
:1003A10021002394260E2819200F238426B427091F
:1003B100281A2000239326A82703281B2628270074
:1003C100281C21012300240125C026AB270A281D52
:1003D10021C523952489250726202700281E2100D1
:1003E10023942600270A281F260E2820200321797E
:1003F100220123832626270D2821213228222000AD
:10040100210422002380240025FC26AA270A282370
:10041100210023002500282421A3220D2380249ECE
:10042100253B2825204221572201248925072826FA
:1004310020002143220D2400253828272108229855
:100441002395248925072624270028282042219343
:100451002201238026AA270A28292003217E22049B
:1004610023832626270D282A200021B02200239548
:1004710026A02707282B21002300240C250426AAC7
:10048100270A282C21022380248625C326AB282D68
:100491002042219722012489250726AA282E2000FF
:1004A10021002200241F2504282F21B2239524890D
:1004B10025072620270428302042218B220423806F
:1004C10026AA270A2831200021B12200239526A03F
:1004D1002707283220032175220423832626270D8E
:1004E1002833200521002200238426B4270928343B
:1004F100200021602300240125C026AB270A2835CE
:1005010021082298239524892507262427002836A7
:1005110021BC2200283721A3220D2300240125C05C
:1005210026AB270A283821602200238024002538A1
:1005310026AA2839210622982395248925072624CD
:100541002700283A21BE2200283B200521002384D0
:1005510026B42709283C200021602300240125C05E
:1005610026AB270A283D214222012395248925070C
:1005710026242700283E210C229826A42707283F5D
:1005810021082840216022002300240125C026AB38
:10059100270A2841210C22982395248925072624FE
:1005A10027002842200521002200238426B42709A0
:1005B1002843200023802400251026AB270A284445
:1005C1002122220123952489250726242700284555
:1005D1002100220023002404251226AA270A2846E6
:1005E100200321D422052383248925072626270DCC
:1005F10028472000216022002300240125C026ABCA
:10060100270A284821B3239524892507260027088E
:100611002849210023002409250026AA270A284A5F
:10062100210223802486253B284B204221DD2205FF
:1006310024892507284C200021002200241F2500A1
:10064100284D21B323952489250726202700284EEC
:10065100210023002497250326AA270A284F204298
:1006610021E222052380248925072850200021101A
:1006710022002300248025CC26AB285121002240D2
:1006810023B42489250726AA27042852220023B04F
:100691002692270928532114220123952600270891
:1006A1002854214823A4262A270028552100220066
:1006B10023002409250026AA270A28562108238079
:1006C1002486253B2857204221112207248925070A
:1006D1002858200021002200241F25002859211418
:1006E100220123952489250726202700285A21162F
:0E06F10026022709285B210022002300248016
:1006FF00254826AA270A285C23A024892507261423
:10070F002709285D2480255026A42704285E21165A
:10071F0022012395248925072700285F2104220021
:10072F002300249C257826AA270A28602143220D1E
:10073F00240125C426AB2861210322002415286239
:10074F0021002400250026AA2863215E23952489F1
:10075F00250726102709286421032300241525C403
:10076F0026AB270A2865210023802400250626AA08
:10077F002866248F25E326AB2867204221CD220748
:10078F002489250726AA286820002160220023003B
:10079F00240125C026AB286921002380248F25033F
:1007AF0026AA286A204221DD220724892507286BE3
:1007BF0020002143220D2300240125C026AB286CE5
:1007CF00210022002400250426AA286D2003217F62
:1007DF0022012383248925072626270D286E2162CF
:1007EF00286F200521002200238426B427092870B2
:1007FF0020002106239526002708287121012300B8
:10080F002497253B26AA270A28722042210E220868
:10081F0023802489250728732003213C220B23835F
:10082F002626270D28742000210322002395260257
:10083F002708287521272300248125C426AB270AE2
:10084F002876210023802409254826AA28772158B5
:10085F00223423A324892507262A2700287821005C
:10086F00220023A0260027092879210723802403AB
:10087F00253926AA270A287A21042300241C253883
:10088F00287B2107238024832539287C2103239566
:10089F002489250726022708287D21272300248164
:1008AF0025C426AB270A287E21002380240925484A
:1008BF0026AA287F2158223423A324892507262AF4
:1008CF0027002880210622002300248125C026939B
:1008DF0027012881210023802489254826AA270A59
:1008EF0028822002216622082300240025662883FF
:1008FF002000210022002380241F250228842106A6
:10090F002489250726DC270C2885210023AA26AA5F
:10091F00270A288623B626002708288723802486BF
:10092F00253B26AA270A288821052489250726DCA6
:10093F00270C2889210023AA26AA270A288A23B64A
:10094F0026002708288B23802486253B26AA270AE2
:10095F00288C2042217B220824892507288D2000FE
:10096F0021002200230024012582288E21052481C5
:10097F0025C226AB288F20032193220823832489A5
:10098F0025072626270D2890200021052200230069
:10099F00248125C026132701289121002380248933
:1009AF00254826AA270A28922002217E2208230002
:1009BF002400256628932000210022002380241F75
:1009CF002502289421052489250726DC270C289544
:1009DF00210023AA26AA270A289623B6260027082D
:1009EF00289723802486253B26AA270A28982105A5
:1009FF002489250726DC270C2899210023AA26AA5B
:100A0F00270A289A2380241F2502289B21012300CF
:100A1F00248125C226AB289C2003219322082383FF
:100A2F00248925072626270D289D20002104220032
:100A3F00239526122708289E216023C426AA27045F
:100A4F00289F210023C02600270928A0204221CB60
:100A5F002208238026AA270A28A12070215422B811
:0E0A6F0023952612270828A2200221CC220857
:100A7D00238026AA270A28A3200321CA220F238315
:100A8D002626270D28A42000210022002300248CD7
:100A9D00250C26AA270A28A521042482257828A614
:100AAD0021002380248925482612270428A7200306
:100ABD0021DE220F238325072626270D28A82000B7
:100ACD00210122002300249C257826AA270A28A983
:100ADD00210023802481254028AA200321CF220F25
:100AED002383248925072626270D28AB207021086E
:100AFD0022B8239526A0270428AC200321D4220F49
:100B0D0023832626270D28AD2127220B28AE207002
:100B1D00216322B823952612270828AF2000210132
:100B2D0022002380248625CB26AB270A28B020421D
:100B3D0021DD22082489250726AA28B120002118A5
:100B4D002280239526A4270028B2200321D9220F25
:100B5D0023832626270D28B32070210A22B823953A
:100B6D0026A0270028B4200221E02208238026AAEF
:100B7D00270A28B52070210A22B8239526A0270020
:100B8D0028B621542602270828B7200021182280D4
:100B9D0026A4270028B82100220023802480254880
:100BAD0026AA270A28B92070215E22B82395248908
:100BBD0025072612270828BA2000210022002380AD
:100BCD002409254B26AA270A28BB2070215F22B8AD
:100BDD002395248925072610270828BC20002100ED
:100BED0022002300241C258326AB270A28BD2003C1
:100BFD00213222092383248925072626270D28BE85
:100C0D0020002100220023002482258C26AB270AF8
:100C1D0028BF200321252209238324892507262681
:100C2D00270D28C0204221BC238026AA270A28C1CF
:100C3D002000210122002300240125C026AB28C25B
:100C4D002070210F22B823952489250726202700FF
:100C5D0028C3200321E3220F23832626270D28C432
:100C6D00200521002200238426B4270928C5200051
:100C7D00210323952614270828C621A623A4262A56
:100C8D00270528C7210023A02644270928C8211895
:100C9D00226D2380249E257B26AA270A28C920425F
:100CAD002113220B2489250728CA200021AE2200FA
:100CBD0023952624270028CB210022032380248777
:100CCD00257B26AA270A28CC20422116220B24890F
:100CDD00250728CD200021AE2200239526242700AC
:100CED0028CE20052100238426B4270928CF2003F0
:100CFD00210D220B23832626270D28D0200021002D
:100D0D002200230024802602270028D123802409D5
:100D1D002548261E28D22158223423332480250726
:100D2D00262A28D32100220023002680271028D42C
:100D3D0021102363262A270028D52100236026A809
:100D4D00271228D621AF224C230026C8270C28D7DE
:100D5D00210022002680270528D823802486253BC4
:100D6D00261E270028D92042211C220E2300248074
:100D7D00250728DA20002135222926C4270C28DB57
:100D8D002002211D220E261E270028DC2000217F97
:100D9D00223426C4270C28DD210022002390249F15
:100DAD0025042610270A28DE23002484250026800A
:100DBD00271028DF2106236324802507262A2700F4
:100DCD0028E021002380248926AA270A28E120056E
:100DDD00238426B4270928E22070216122B82395A7
:0E0DED002612270828E320002101220023807F
:100DFB00248625C326AB270A28E4204221CE220FC6
:100E0B002489250726AA28E52070215022B823958E
:100E1B002612270828E6200521002200238426B469
:100E2B00270928E72070216422B82395261227086A
:100E3B0028E82000210122002380248625C326AB2D
:100E4B00270A28E9204221D3220F2489250726AA25
:100E5B0028EA2070215122B823952612270828EB67
:100E6B00200521002200238426B4270928EC2070BA
:100E7B00216522B823952612270828ED2000210191
:100E8B0022002380248625C326AB270A28EE204286
:100E9B0021D8220F2489250726AA28EF207021525A
:100EAB0022B823952612270828F0200521002200BE
:100EBB00238426B4270928F12070216122B82395B9
:100ECB002602270828F220002101220023802486F5
:100EDB0025C326AB270A28F3204221DD220F2489C4
:100EEB00250726AA28F42070215022B82395260224
:100EFB00270828F5200521002200238426B4270982
:100F0B0028F6200021012380248625CB26AB270A37
:100F1B0028F7204221E1220F2489250726AA28F849
:100F2B002000210222002300248125C426AB28F9AE
:100F3B00210023802489254826AA28FA200523840A
:100F4B00250726B4270928FB2070214E22B82395AC
:100F5B002610270828FC200021002200238024864D
:100F6B0025C326AB270A28FD204221E7220F24891F
:100F7B00250726AA28FE200021BB22002395262028
:100F8B00270028FF20052100238426B427092A08DF
:100F9B001001FFFFFFFF3A00643A65BB083A09BB3B
:100FAB0050105267517705A11804540155210700C1
:100FBB00060C0B03501051005204610F645565551C
:080FCB0005A11804FFFFFFFF60
:03000000021F617B
:0C1F6100787FE4F6D8FD758149021CFC75
:1015A600BB010CE58229F582E5833AF583E02250FA
:1015B60006E92582F8E622BBFE06E92582F8E22244
:0D15C600E58229F582E5833AF583E493225E
:1015D300BB010689828A83F0225002F722BBFE01F7
:0215E300F322F1
:1015E500F8BB010DE58229F582E5833AF583E8F03C
:1015F500225006E92582C8F622BBFE05E92582C8E8
:02160500F222CF
:10160700E88FF0A4CC8BF0A42CFCE98EF0A42CFC82
:101617008AF0EDA42CFCEA8EF0A4CDA8F08BF0A400
:101627002DCC3825F0FDE98FF0A42CCD35F0FCEB5F
:101637008EF0A4FEA9F0EB8FF0A4CFC5F02ECD3924
:0F164700FEE43CFCEAA42DCE35F0FDE43CFC2291
:1016560075F008758200EF2FFFEE33FECD33CDCC4B
:1016660033CCC58233C5829BED9AEC99E5829840CE
:101676000CF582EE9BFEED9AFDEC99FC0FD5F0D6AB
:10168600E4CEFBE4CDFAE4CCF9A88222B800C1B9D5
:101696000059BA002DEC8BF084CFCECDFCE5F0CB13
:1016A600F97818EF2FFFEE33FEED33FDEC33FCEB4C
:1016B60033FB10D703994004EB99FB0FD8E5E4F907
:1016C600FA227818EF2FFFEE33FEED33FDEC33FCF4
:1016D600C933C910D7059BE99A4007EC9BFCE99AE8
:1016E600F90FD8E0E4C9FAE4CCFB2275F010EF2F2D
:1016F600FFEE33FEED33FDCC33CCC833C810D7072D
:101706009BEC9AE899400AED9BFDEC9AFCE899F867
:0E1716000FD5F0DAE4CDFBE4CCFAE4C8F922FA
:10172400EB9FF5F0EA9E42F0E99D42F0E89C45F01B
:011734002292
:10173500E8600FECC313FCED13FDEE13FEEF13FF92
:03174500D8F122B6
:100FD300E53D2431F8E6053D22782E3007027831CD
:100FE300E475F0011217610217482000EB7F2ED23F
:100FF300008018EF540F2490D43440D4FF30040BF6
:10100300EF24BFB41A0050032461FFE53E600215CC
:101013003E0541E5417002054030070D782EE47529
:10102300F001121761EF0215D3021EA57403D20754
:101033008003E4C207F53D8B2E8A2F8930E4F53E09
:10104300F540F541E53E60077F2012100E80F575EF
:101053003FFFC201C200C202C203C205C206C208E8
:10106300120FDCFF700D3007057F0012101FAF4118
:10107300AE4022B4255FC2D5C204120FDCFF24D0D8
:10108300B40A00501A75F00A783E30D50508B6FF49
:101093000106C6A426F620D5047002D20380D92403
:1010A300CFB41A00EF5004C2E5D20402121FD201DA
:1010B30080C6D20080C0D20280BCD2D580BAD2050D
:1010C30080B47F2012100E2002077401B53E004049
:1010D300F1120FD3FF12100E021047D208D206806E
:1010E30095120FD3FB120FD3FA120FD3F94A4B7099
:1010F3000679F07A127BFF20022EE53E602A7E00FD
:101103008E827583001215A660060EEE653F70F0A1
:10111300C2D5EBC0E0EAC0E0E9C0E0EE121266D04F
:10112300E0F9D0E0FAD0E0FB121748FF60AAEBC069
:10113300E0EAC0E0E9C0E012100ED0E02401F9D0EB
:10114300E03400FAD0E0FBE53F0460DCD53FD98012
:10115300877BFF7A127962D202809C7910800279B0
:1011630008C206C2088008D2D5790A8004790AC267
:10117300D5E53F047002F53FE4FAFDFEFF120FD3FD
:10118300FC7B08200113120FD3FD7B1030000A12E1
:101193000FD3FE120FD3FF7B20EC3382D592D550B1
:1011A30013C3E43000069FFFE49EFEE42001039D89
:1011B300FDE49CFCE4CBF8C201EC700CCFCECDCCAB
:1011C300E824F8F870F38017C3EF33FFEE33FEED36
:1011D30033FDEC33FCEB33FB994002FB0FD8E9EB17
:1011E300300105F8D0E0C448B201C0E00AEC4D4E2E
:1011F3004F78207B0070C2EAB53F0040BCC0E012CC
:101203001268D0F0D0E0200104C4C0E0C4B201C031
:10121300F0120FF7D0F0D5F0EB0210471217711050
:10122300E453115E5810B54C10B14211624F116A6C
:1012330044116A4910CA431170551154461154455B
:1012430011544713105010B92D10BD2E10E02B1060
:10125300C12310DE2012FE2A107948000010D83F67
:101263003F3F00790AA2D5200314300509B91002C3
:101273000404B9080104A2D5200602500104200287
:05128300689202B53E77
:10128800005034C0E07F203003197F30A20272067C
:101298007205500F1212BFC202C206C205C2087FF1
:1012A80030800F300503E9C0E012100E300503D07E
:1012B800E0F9D0E0B53ECC3005177F30B9100C12FC
:1012C800100E7F583004077F788003B90803121086
:1012D8000E3002057F2D02100E7F202008F87F2B8C
:1012E8002006F322920280CF286E756C6C29002D9F
:1012F80050434958D201120FD33001F8C201783E49
:1013080030D50108F6021079120FD32403B4050072
:101318004001E49012F793120FFF743A120FFFD2B4
:0713280003753E0402115E93
:10174800BB010689828A83E0225002E722BBFE029F
:09175800E32289828A83E49322D2
:10176100FAE6FB0808E6F925F0F618E6CA3AF62289
:10177100D083D082F8E4937012740193700DA3A307
:1017810093F8740193F5828883E47374029368601B
:06179100EFA3A3A380DF1B
:101EA500EFB40A07740D121EB0740A309811A89980
:101EB500B8130CC2983098FDA899C298B811F6309D
:071EC50099FDC299F5992275
:00000001FF
